:020000040800F2
:1000000038BC012051040008590400083D030008D1
:100010005D0400085F04000861040008000000009F
:100020000000000000000000000000004D03000878
:100030006504000800000000A903000875530008CB
:100040006B0400086B0400086B0400086B040008D4
:100050006B0400086B040008594900081D4A000899
:10006000414A0008654A0008894A00086B040008F4
:100070006B0400086B0400086B0400086B040008A4
:100080006B0400086B0400086B0400086B04000894
:100090006B0400086B0400086B040008AD4A0008FC
:1000A0006B040008855400086B0400086B0400080A
:1000B000D1540008FD5400082D5500086B040008B9
:1000C0006B0400086B0400086B0400086B04000854
:1000D0006B04000895620008A1620008AD62000888
:1000E0007D4900086B0400086B0400086B040008DD
:1000F000ED5500086B0400086B0400086B04000851
:100100006B0400086B0400085D5500086B040008D0
:100110006B0400086B0400088D550008BD550008ED
:100120006B0400086B0400086B0400086B040008F3
:100130006B0400086B0400086B0400086B040008E3
:100140006B0400086B0400086B0400086B040008D3
:100150006B0400086B0400086B0400086B040008C3
:100160006B0400086B0400086B0400086B040008B3
:100170006B0400086B0400086B0400086B040008A3
:100180006B0400086B04000800F002F800F0C4F8EB
:100190000AA090E8000C82448344AAF10107DA45E2
:1001A00001D100F0B9F8AFF2090EBAE80F0013F070
:1001B000010F18BFFB1A43F001031847BCD1080018
:1001C000FCD108000A444FF0000C10F8013B13F07A
:1001D000070408BF10F8014B1D1108BF10F8015BA0
:1001E000641E05D010F8016B641E01F8016BF9D193
:1001F00013F0080F1EBF10F8014BAD1C0C1B09D1EA
:100200006D1E58BF01F801CBFAD505E014F8016B5B
:1002100001F8016B6D1EF9D59142D6D370470000ED
:100220000023002400250026103A28BF78C1FBD8FF
:10023000520728BF30C148BF0B6070476E2900F0DD
:100240007983702900F05F84662914F042A3652940
:1002500014F03FA3672914F03CA3612914F03BA3D9
:1002600003681B0A28BF41F08001692900F026833A
:10027000642900F02383752900F020836F2900F0A2
:10028000EC83782900F02B84E92901F08787E429A1
:1002900001F08487F52901F08187EF2900F0E983D7
:1002A000F82900F02A840368DB0928BF41F08001A7
:1002B000632901F05087732901F05587E32901F084
:1002C0006087F32901F06587002070471FB554F05F
:1002D00018FA9DE8030001F0E7FA00F0A6FF01F02C
:1002E000BFFA04000020002153F08AFA20600020A9
:1002F000002153F06FFA401C60600020002153F091
:1003000095FAA0600020002153F0A6FAE06002F008
:10031000EFF801F047FA1FBD02F0A4FF1146FFF706
:10032000D5FF4CF0CDFF30F0B6FC0000EFF30880B5
:100330007047EFF30980704768467047704669461A
:100340002FF046FD51F008FEFEE700002C4B196827
:100350000868B0E8F04F80F30988BFF36F8F4FF063
:10036000000080F311887047000000000848006812
:10037000006880F308884FF0000080F3148862B6AC
:1003800061B6BFF34F8FBFF36F8F00DF00BF00BFB9
:1003900008ED00E0DFF80C00016841F47001016035
:1003A000704700BF88ED00E0EFF30980BFF36F8F67
:1003B000134B1A681EF0100F08BF20ED108A20E9B9
:1003C000F04F106009B44FF0500080F31188BFF374
:1003D0004F8FBFF36F8F52F0BBF84FF0000080F3E8
:1003E000118809BC19680868B0E8F04F1EF0100FBA
:1003F00008BFB0EC108A80F30988BFF36F8F704795
:1004000058070020EFF3058070470000EFF30880E5
:100410007047EFF309807047684670470B49D1F881
:1004200000C04A685CF8043B1068184442F8040BAA
:100430008C4528BFA1F1DC0C8A4228BFA1F1DC0267
:10044000C1F800C04A6020F000407047CC3E012057
:100450000948804709480047FEE7FEE7FEE7FEE758
:10046000FEE7FEE7FEE7FEE7FEE7FEE70448054994
:10047000054A064B7047000019540008890100081E
:10048000383F012038BC012038B4012038B40120A5
:100490007047000010B501F0E3F9001D10BD00BF6A
:1004A0003533050000487047D43E012070B506463C
:1004B00001F0D2F9056806F10B0020F00704B44200
:1004C0009CBF002070BD2B466A68BAB11068A0427C
:1004D00010D304F1080188423CBF5068586007D32C
:1004E0005168101941601168091B0160586014605F
:1004F000101D70BD13465268002AE7D121462846D8
:1005000001F0BEF90028DED170BD70B50446051FAC
:1005100001F0A2F90068002C14BF446870BD002CE3
:1005200018BFAC423CBF20466468F8D301680A1883
:10053000AA4218BF456003D12A68054611440160EC
:1005400028684119A1421CBF6C6070BD6168696078
:1005500021680844286070BD70B50D460646041F2A
:1005600001F07AF9D0F800C0C5B1E6B105F10B0091
:1005700020F00703AB423CBF002070BD20689842CA
:1005800038BFDCF8042013D3C11A08292FD3E01890
:1005900040F8041B2360FFF7B8FF28E03046FFF760
:1005A000B4FF002070BD2846BDE87040FFF77EBF55
:1005B000002A18BFA2423CBF94465268F8D30119E2
:1005C000914216D111680844984212D3C11A0829E1
:1005D0003CBF2060506808D35168E0184160216832
:1005E00012681144C91A01602360CCF80400201D70
:1005F00070BD181FFFF75AFF050007D021680A1FBA
:10060000211D00F0DCFF201DFFF77FFF284670BD95
:1006100053EA020C00F069802DE9F04B4FF0000620
:10062000002B1FBFB3FA83F503FA05F424FA05F68D
:100630005E4012BF1643B2FA82F502FA05F4C5F124
:1006400020051EBF22FA05FC44EA0C04203556EAB8
:10065000044C4FEA144418BF641C4FF000084FF0DC
:100660000009904271EB030C39D3002919BFB1FA8C
:1006700081F701FA07F6B0FA80F700FA07F6C7F13A
:1006800020071EBF20FA07FC46EA0C062037B6FBFF
:10069000F4FCA7EB0507103F07F01F0BCBF120067A
:1006A0000CFA0BFB2CFA06F644BFB3460026202FAB
:1006B000A4BF5E464FF0000B5BEA060C08BF4FF08C
:1006C000010B19EB0B09ABFB027C48EB0608C01BC6
:1006D00006FB02CC0BFB03CC71EB0C01C1E70B4614
:1006E000024641464846BDE8F08B13B54FF0000086
:1006F0004FF00001AFF30080BDE81C40704710B51B
:100700004C1084EA530404D54042C1F1000138BFC3
:10071000491E1B4204D55242C3F1000338BF5B1E81
:10072000FFF776FF14F0804F04D04042C1F1000182
:1007300038BF491E14F0004F04D05242C3F10003E9
:1007400038BF5B1E10BD10B50446FFF7A3FE00685E
:10075000005DC00602D504F1200010BD204610BD8A
:100760007CB51D4616460C00009001D02044401E6A
:10077000074B7B442A4669460190304601F0C1FC94
:1007800005461CB10020694601F0CEFC28467CBD20
:10079000BD1900000FB41CB5084B06AA7B4469467E
:1007A0000090059801F0ADFC04460020694601F078
:1007B000BBFC20461CBC5DF814FB0000891900003E
:1007C0000FB47CB50C0009AA009001D02044401E53
:1007D000084B7B4469460190089801F092FC05465D
:1007E0001CB10020694601F09FFC28467CBC5DF8E6
:1007F00014FB00005D19000070B5044685690068AF
:10080000C10601D5302600E02026C00707D070BD04
:10081000D4E9012130469047206A401C20626D1EB9
:10082000F6D570BD70B5044685690078C00707D15C
:1008300070BDD4E9012120209047206A401C20622D
:100840006D1EF6D570BD09684A0501D540B27047E6
:10085000C905FCD500B2704709684A0501D5C0B288
:100860007047C905FCD580B2704770B50C46054687
:10087000012A05D02878800600D5EA69002302E025
:10088000012305E05B1C934202D2E05C0028F9D111
:10089000A869E618C01AA861286A18442862284680
:1008A000FFF7AAFF04E0D5E9012114F8010B9047F6
:1008B000B442F8D32846FFF7B5FF70BD2DE9F041EB
:1008C0000646002410687529314616A510D0FFF79A
:1008D000BAFF002802DA404213A507E031688A0710
:1008E00001D512A502E0490704D511A5012401E0B4
:1008F000FFF7B2FF00210A2206F1240709E0B0FB4E
:10090000F2FCB0FBF2F302FB1C00303078541846C6
:10091000491C0028F3D123462A463046BDE8F04161
:1009200001F003B8000000002D0000002B000000C3
:100930002000000011680268006A530501D50870A4
:100940000AE0D30501D5088006E0130603D5C217D7
:10095000C1E9000200E00860012070472DE9FF5F57
:1009600015468A460446DFF8AC80F8440027D8E9EB
:1009700000103E46CDE9001010E03AF816106A4625
:1009800002A801F08AFE411C07D02178890603D510
:10099000E269391891420DD80744761C2078800608
:1009A00002D5E069B84205DDAE42E6DB3AF8160052
:1009B0000028E2D1A069C01BA0612046FFF71CFF00
:1009C000D8E90010CDE90010002017E03AF818101F
:1009D0006A4602A801F061FEB0F1FF3F81460BD0EC
:1009E00000250DF1080B05E0D4E901211BF80500F5
:1009F00090476D1C4D45F7D308F10100B042804689
:100A0000E4DB206A384420622046FFF70BFFBDE894
:100A1000FF9F0000FEB4080030B4002100F1240460
:100A200008E002F00705D208303542EA4372DB08DD
:100A30006554491C52EA0305F3D10468002310A24F
:100A4000250707D5A40600D421B1C46901230DA24E
:100A5000641EC46130BC00F068BF10B50446214676
:100A60001068FFF7F9FE02462046BDE8104000235B
:100A7000D2E7D21D22F00701D1E90023CCE7000024
:100A80000000000030000000F0B40D4601880905A8
:100A900002D5214C7C4402E01F4C7C440E340021E2
:100AA00000F1240608E002F00F071209E75D42EAB0
:100AB00003721B097754491C52EA0307F3D10278E9
:100AC0000023120704D5702D06D009B1022311347A
:100AD0002246F0BC00F029BF01231034F8E770B5BE
:100AE00004460D4621461068FFF7B6FE0246294629
:100AF0002046BDE870400023C6E7D21D22F0070360
:100B0000D3E90023C0E70368126843F020030360C1
:100B10000823C3610023B7E7DCB308002DE9F05FC9
:100B2000894604464FF0000ADFF874B1FB44C0F870
:100B300020A02046E1688847002874D0252806D0E8
:100B4000D4E901219047206A401C2062F1E7002689
:100B50005F462046E16888472028054607DB312D9F
:100B600005D2781910F8200C08B10643F1E7B00758
:100B700001D526F00406C4F81CA00027C4F818A06C
:100B80002A2D09D028462BF01CFB38B304EB87082C
:100B9000303DC8F8185019E059F8041B204604EB02
:100BA00087029161E1688847012F054618D1E06905
:100BB000002820DA26F020061DE0D8F8180000EB07
:100BC000800005EB40003038C8F818002046E16886
:100BD000884705462BF0F5FA0028EED1012F0AD000
:100BE0002E2D08D12046E16888477F1C0546022F3C
:100BF00046F02006C4DBA069002803DA404246F034
:100C00000106A061F00701D026F010066C2D0BD074
:100C1000682D09D04C2D39D06A2D35D0742D35D0A2
:100C20007A2D33D016E038E0E1682F462046884719
:100C3000B842054609D16C2F26D04FF48060E16898
:100C4000064320468847054604E06C2F1AD04FF42F
:100C5000807006430DB3A5F14100192802D8203554
:100C600046F400664A462946204626604E46FFF76F
:100C7000E5FA80B101280BD0F61D26F0070000F13F
:100C8000080956E74020E4E78020D8E70020D6E7AF
:100C900006F104094DE7284652E7206ABDE8F09FB7
:100CA0006CB308000FB400B58DB010A90990009185
:100CB0000B904FF0FF300A9000200C9006487844CB
:100CC0000690064878446A4607900F9909A801F0F3
:100CD000B7FA0DB05DF814FB9F150000B7150000C2
:100CE0002DE9FF5F1D464FF0FF3B91464FF0000896
:100CF0005F46D5E90146A96901987F1C8847296AA2
:100D0000824688470028F6D1BAF1FF3F0CD0002E6A
:100D100024F4C06419DD600614D5BAF12B0F09D094
:100D2000BAF12D0F0ED103E0584604B0BDE8F09F94
:100D300044F48064A96901987F1C8847761E824626
:100D4000002E02DDBAF1300F03D0B9F1000F26D02A
:100D500032E0A969761E01987F1C44F4007488472C
:100D6000002E824605DDBAF1780F06D0BAF1580F91
:100D700003D0B9F1000F10D01EE0B9F1000F02D07E
:100D8000B9F1100F18D1A969761E01987F1C24F4BF
:100D9000007488478246102002E0082000E00A2004
:100DA000814609E0A96908FB0908761E01987F1CA5
:100DB00044F4007488478246002E05DD49465046BB
:100DC00001F02AFA0028EDDAE96901988847A005C0
:100DD00002D46FF00100A8E7E00725D1600613D523
:100DE000600502D5C8F1000000E0404629680A1DF0
:100DF0002A600968220501D5087015E0220701D58F
:100E0000088011E008600FE02868011D2960006873
:100E1000210502D580F8008006E0210702D5A0F860
:100E2000008001E0C0F8008038467EE770B50646D5
:100E3000FFF738FB0468054630460A22002100F01F
:100E400002F82C6070BD2DE9F04791460F468046B0
:100E50000446002614F8015B2DB1FFF71BFB006868
:100E6000405DC007F6D12B2D02D02D2D18D0641E69
:100E70004A463946204601F013FA27B13968A142A3
:100E800001D1C7F800804FF0020471050BD5404234
:100E9000002803DDFFF706FB0460A007BDE8F0872C
:100EA00046F48066E4E70028F8DAFFF7FBFA04600E
:100EB0006FF00040F2E7000070B50446C06881079B
:100EC00013D0800601D5A56A04E0A16960680844D2
:100ED0002169451A204601F0C7FA00220646294634
:100EE000204600F01BF8304670BD002070BD70B584
:100EF00010B1BDE87040DFE70025074C6E1E07E02B
:100F00002046FFF7D9FF00B13546206D20F00104DF
:100F1000002CF5D1284670BD88BB00102DE9F041AA
:100F2000044616460D464769007B80072ED038469A
:100F30002BF08FFA50BB3EB3012E02D0022E25D1EA
:100F400004E0204600F066F805441DE038462BF02A
:100F50007EFAE168002841F01001E16005DA2046E0
:100F600001F04EFA0120BDE8F081C9030BD562689B
:100F7000E16A914200D81146A26911442269891A96
:100F8000814200DD08460544002D01DA0220EAE72F
:100F9000E16A6068E268814206D29103E06203D5AB
:100FA00022F4003141F01002A6690027AE4213DCA2
:100FB000E16A814201D90B4600E0034603EB060CCF
:100FC0002369ACEB030CAC4506DD814201D98C46AC
:100FD00000E084469C4505D1A760276042F02000D0
:100FE000A5620DE0AD1BE669AE1B8142A66000D98B
:100FF0000846C01A281A20605819606022F02000A4
:1010000003490840E060002084F84870ABE7000026
:10101000BFCFD7FF10B50146C268900703D0900636
:1010200007D5886A0AE0FFF73DFA01210160881EB2
:1010300010BD8B69486818440B69C01A91F8483094
:101040001BB191F84910401A10BD1103FCD50028BE
:10105000FADD401E10BD70B5C468A50713D0650247
:1010600011D4B2F5807F09D0B2F5007F06D0B2F579
:10107000806F08D1012300F1240106E05D1E6FF0AE
:101080007F46B54201D3012070BD0161C36141605B
:1010900024F470611143C160002070BD2DE9F0415E
:1010A0000C4607461646104600F06EF82078611C84
:1010B00061280AD0722802D077283CD102E00125AD
:1010C000002405E00225042402E0082448F2020579
:1010D00011F8010B2B2806D0622809D011F8010C59
:1010E00074280AD00BE045F0030544F00204EFE752
:1010F00045F0040544F00104EAE744F010043846E2
:1011000021462BF0ADF9411C15D0002131617160F1
:101110004FF40071F560F1617061200704D530462D
:1011200002220021FFF7FAFE306D40F00100306529
:101130003046BDE8F0810020FBE72DE9F0410D4687
:101140000646104C206DC10704D0410804D020F0A1
:101150000104F7E722460EE05420FFF7A7F9070045
:101160000ED0206D47F00101084354212065384618
:1011700000F081FA3A4629463046BDE8F0418DE755
:101180000020D6E788BB00102DE9F04304464FF05D
:10119000FF380025C1B0C668D4E90497B00707D06E
:1011A000204601F061F938462BF03FF9002803DAB8
:1011B000404641B0BDE8F083300502D54846FFF710
:1011C000A4F9216A49B14FF4807268462BF0AEF958
:1011D00068464DF05BFD00B145464C21204600F0CD
:1011E0004AFA206D20F0010020652846E1E7000062
:1011F00010B5024801F018FA004810BDC03D0120AA
:101200000B4910B5A1F17C020A4CC2E93712372113
:1012100006E000EB104342F82130074B00FB03408F
:101220000B1EA1F10101F4DC10BD0120E8E7000074
:101230006C3E0120E119D666CD0D010010B50020ED
:1012400001F06CFAAFF30080BDE8104001202BF0F4
:10125000FDB82DE9F041074615460E461020FFF770
:1012600025F904000AD06760C4E9026500F000FBBC
:101270000168216004600020BDE8F0810120FBE7E7
:1012800070B50C46054600F0EBFA0068016859B1EC
:10129000421815F8010B14F8013B115CD35C08B13E
:1012A0009942F6D0C81A70BD21462846BDE8704064
:1012B00000F034BA401ECAB210F8011F8A4202D0B0
:1012C0000029F9D10020704710B504780CB10A4606
:1012D00003E0002010BDA342FCD012F8013B002B1C
:1012E000F9D1401CF1E730B503461D783DB10A46FF
:1012F00012F8014B1CB1AC42FAD15B1CF5E7181A8D
:1013000030BD30B505460B462A4613F8014B12F89E
:10131000010B08B1A042F8D01CB1002802D06D1C0E
:10132000F1E7284630BD40EA010310B59B070FD115
:10133000042A0DD310C808C9121F9C42F8D020BA45
:1013400019BA884201D9012010BD4FF0FF3010BDFD
:101350001AB1D30703D0521C07E0002010BD10F8CB
:10136000013B11F8014B1B1B07D110F8013B11F891
:10137000014B1B1B01D1921EF1D1184610BD40EA52
:101380000103024630B59B0710D14FF0013400E055
:1013900008C208C91D1B9D4315EAC41FF8D013F0ED
:1013A000FF0102F8011B0DD01B0AF8E711F8013B01
:1013B000002B02F8013B05D011F8013B002B02F88D
:1013C000013BF3D130BD0022CBB210F8011B994292
:1013D00000D1421E0029F8D11046704710B5431CB9
:1013E00002E010F8011B71B18107FAD14FF0013210
:1013F00002C88C1A8C4314EAC211F9D0C01A0A062A
:1014000003D0C01E10BDC01A10BD0A0401D0801E3A
:1014100010BD0902FCD0401E10BD40EA010370B5AA
:101420009B072ED14FF00136042A2AD308C810C9D1
:101430009D1B9D43121F15EAC61517D0D8B2E1B205
:10144000401A50EA056110D198B2A1B2401A50EA90
:1014500005410AD123F07F4024F07F41401A50EA31
:10146000052102D1180EA0EB146070BDA342DBD0A1
:1014700018BA21BA884201D9012070BD4FF0FF305F
:1014800070BD0AB9002070BD10F8013B11F8014B86
:1014900063B1A3420AD1521E08D010F8013B11F8E3
:1014A000014B1BB1A34201D1521EEDD1181B70BDDF
:1014B000032A40F2308010F0030C00F0158011F880
:1014C000013BBCF1020F624498BF11F801CB00F858
:1014D000013B38BF11F8013BA2F1040298BF00F8AC
:1014E00001CB38BF00F8013B11F0030300F0678027
:1014F000083AC0F0088051F8043B083A51F804CB90
:10150000A0E80810F5E7121D5CBF51F8043B40F855
:10151000043BAFF30080D20724BF11F8013B11F860
:1015200001CB48BF11F8012B24BF00F8013B00F8A4
:1015300001CB48BF00F8012B7047431A28BF9A42DD
:101540007FF6B6AF032A1044114440F2268010F013
:10155000030F1EBF11F8013D521E00F8013D10F0AF
:10156000030F7FF4F6AF11F0030301F0F880083A9F
:10157000C0F00B8051F8043D083A51F804CD40F812
:10158000043D40F804CDFFF7F3BF121D5CBF51F8D6
:10159000043D40F8043DAFF30080D20724BF11F8AA
:1015A000013D11F801CD48BF11F8012C24BF00F80E
:1015B000013D00F801CD48BF00F8012C704710B57F
:1015C000203AC0F00B80B1E81850203AA0E818503B
:1015D000B1E81850A0E81850BFF4F5AF5FEA027CFC
:1015E00024BFB1E81850A0E8185044BF18C918C06B
:1015F000BDE810405FEA827C24BF51F8043B40F80C
:10160000043B08BF7047D20728BF31F8023B48BFF0
:1016100011F8012B28BF20F8023B48BF00F8012B2E
:10162000704702F0FF0343EA032242EA024200F05D
:1016300002B84FF000020429C0F0128010F0030C31
:1016400000F01B80CCF1040CBCF1020F18BF00F8B5
:10165000012BA8BF20F8022BA1EB0C0100F00DB864
:101660005FEAC17C24BF00F8012B00F8012B48BFC2
:1016700000F8012B70474FF0000200B51346944666
:101680009646203922BFA0E80C50A0E80C50B1F1DA
:101690002001BFF4F7AF090728BFA0E80C5048BFEE
:1016A0000CC05DF804EB890028BF40F8042B08BF8C
:1016B000704748BF20F8022B11F0804F18BF00F888
:1016C000012B704710B5044610F0030F08BF11F04E
:1016D000030F40F015804FF0013E121FC0F20E8044
:1016E00051F8043BA3EB0E0C2CEA030C1CEACE1CB5
:1016F00008BF40F8043BF0D0A1F1040102F104025C
:10170000521E08DB11F8013B002B00F8013BF7D11A
:101710001146FFF78EFF204610BD00004FF0013C40
:1017200050F8042B51F8043B9A4221D1A2EB0C0350
:10173000934313EACC1317D150F8042B51F8043B10
:101740009A4215D1A2EB0C03934313EACC130BD1AD
:1017500050F8042B51F8043B9A4209D1A2EB0C0338
:10176000934313EACC13DBD04FF00000704700BF67
:10177000D01A01BAB1FA81F101F0180122FA01F090
:10178000CB40C1F12001DBB2C0B2C01A2CFA01F388
:10179000D11A914311EAC311E6D1704770477047DF
:1017A0007047000070B5064C7C44064D7D4403E054
:1017B000206820448047241DAC42F9D170BD000050
:1017C00090BD0800ECBD08002DE9F04117460E461B
:1017D000054633B107FB0354E41B2046B047A5423E
:1017E000FAD1A5F10800BDE8F081A0E8004FF0C0F3
:1017F00040F804DB01B5AFF30080BDE8024001C151
:101800000020A1EC068BA1EC02BBA1EC06CBA1EC65
:1018100002FB704700F12C080C46B8EC068BB8ECC4
:1018200002BBB8EC06CBB8EC02FB00F12C0858F870
:10183000040DAFF3008058F8040D8546200008BF62
:10184000012038E9F00018E9004F70470048704760
:10185000D43E01207047000000487047DC3E012064
:1018600000487047F43E012000487047083F0120BF
:10187000004870470C3F0120704770477047704721
:1018800038B504460A4600206946AFF300800028B8
:1018900008BF38BD02460099204600F08CFF0120A9
:1018A00038BD012001F089BCF8B5AFF300800546D2
:1018B00000200C46102000BF0646A819A0420DD9F2
:1018C000324669460020AFF30080070008BF01F0F0
:1018D00074FC0098A04218BF0546C419FFF7BCFF6E
:1018E00005600746F01D20F007004619284600F065
:1018F0000AF8B44208BFF8BDA21B31463868BDE8FB
:10190000F84000F058BF00210160C0E901107047A5
:101910001020704710B5FEF7C5FD006810BD10B56A
:101920000446FEF7BFFD046010BD2DE9F0470D46EB
:1019300099469246044600F124080168880604D5B9
:10194000E06921F01001216000E00120A84201DDE2
:10195000471B00E00027A1697A1902EB0900081A69
:10196000A0612078C00602D42046FEF745FF00267D
:1019700008E0D4E901211AF806009047206A401CCB
:10198000761C20624E45F4DB2078C0060AD520463E
:10199000FEF732FF06E0D4E9012130209047206AAB
:1019A000401C2062381EA7F10107F4DC07E0D4E9EF
:1019B000012118F805009047206A401C2062281E6B
:1019C000A5F10105F3DC2046FEF72CFF2078000688
:1019D00002D50220BDE8F0870120FBE770472DE922
:1019E000FF4F0C461E464FF0FF378BB0D2E9000187
:1019F000DDF860800A908A46C1F30A5505B93D4674
:101A0000002108464FF00000BAF1000F00F440003A
:101A100005DA00EB80004FF4400101EA50004FEA84
:101A20009059B9F1010F00DDB9460A9850EA4A0011
:101A30000ED044F61050A5F2FF3545432F14B8F1EF
:101A4000000F1ED07542291E1EDDC9F100021CE0E8
:101A5000B8F1010F4FF0000001D0302103E0F24354
:101A600005E02154401CB042FBDB3046002200213F
:101A700021540B99C1F80880C1E900200FB0BDE8DE
:101A8000F08FBD1B6D1CDEE74A4600DA694206A8EE
:101A900001F0F4F806AB93E8070003AB83E8070016
:101AA00050460A9902F05FFA8DE80700A0F5005051
:101AB0001F3800900398002D0ADD42F21F014A46AC
:101AC0000844002303A90390684602F00BFD09E0D7
:101AD000A0F500504A461F38002303A9039068462A
:101AE00002F02AFD8DE807000004000C03D04FF03F
:101AF000FF30410800E01046B8F1000F03D000228B
:101B0000009215461EE0751E05D400F06EFE3032C0
:101B100062556D1EF9D5B3460122084302D000225A
:101B20007F1C04E02078302801D100227F1E002A8B
:101B3000099784D01DE0112D07DA00F056FE3032EF
:101B400062556D1C50EA0102F5D1084302D000989D
:101B5000C8B10EE00021681E05E0235C625C63549E
:101B60002254401E491C8142F7DBAB46A81B401E95
:101B70000990002004F80B000B98099AC0F808801F
:101B8000C0E9002B7AE711264FF0000857E72DE94E
:101B9000F04F88460446D21D22F0070191B0D1E9EA
:101BA0000001CDE90A0128F0DDFB02460B98C00FC9
:101BB00001D02D2007E02068810701D52B2002E00D
:101BC000202101EAC000032A099001D0072A05DB81
:101BD00003464146204600F057FE0BE12078800680
:101BE00001D5E06900E00620B8F1650F814606D016
:101BF000B8F1660F18D0B8F1670F70D131E000204E
:101C0000B9F1110F009001DB112301E009F101038B
:101C10000AAA01A90CA8FFF7E2FEDDE90C70002674
:101C200009F10105834647E001204B4600904FF043
:101C300000470AAA01A90CA8FFF7D1FEDDE90DB003
:101C40000C995D46002610B909F101000D18B9EB99
:101C5000050003D4C0F1FF3609F10105A5EB090029
:101C60002BE0B9F1010F01DA4FF001090020B9F1C1
:101C7000110F0090484601DD112300E003460AAA37
:101C800001A90CA8FFF7ABFEDDE90C704D4600265C
:101C90008346207800070AD4AB4500DA5D4601A8E8
:101CA000012D04DD411911F8011C302907D04F45E1
:101CB00002DA17F1040F04DA012082460FE06D1EEC
:101CC000EEE7002F02DCED1B3E4403E0781CA84247
:101CD00000DD7D1CB81B00F1010A4FF000472078A1
:101CE000000703D4AA4501DB4FF0FF3A0021B7F10A
:101CF000004F0DF143088DF8431024D002202B2310
:101D0000002F01DA7F422D230A21021EA0F10100DB
:101D100000DC5FB197FBF1FC97FBF1F201FB1C7C4F
:101D200017460CF1300C08F801CDEEE7A8F10100E0
:101D300003702188090501D5452100E06521A0F146
:101D4000010800F8011C09980FA9A1EB0807FF1D65
:101D500000B10120411901EBEA70A1693844081A69
:101D6000401EA0612078C00602D42046FEF744FD44
:101D7000099828B1D4E901219047206A401C2062CB
:101D80002078C00622D52046FEF736FD1EE0002E44
:101D900004DBB34502DD01A8805D00E03020D4E91A
:101DA00001219047206A401C2062761CAAF10100A4
:101DB0005FEA000A0AD1FFF753FDC0680168405C82
:101DC000D4E901219047206A401C2062281EA5F119
:101DD0000105DCDC07E0D4E9012118F8010B90478C
:101DE000206A401C2062381EA7F10107F3DC204660
:101DF000FEF718FD032011B041E600002DE9F04F79
:101E000004460D46D21D22F0070089B0D0E90097A4
:101E10004846394628F0A6FA0246F80F01D02D238D
:101E200007E02068810701D52B2302E0202101EA89
:101E3000C0038DF820300BB1012000E00020032A00
:101E4000824601D0072A04DB2946204600F01CFD0B
:101E50003FE12078800601D40D2500E0E569C7F355
:101E60000A560D2D49DA00214FEA175B08464FF05C
:101E70000000002F00F4400007DA00EB80004FF470
:101E8000400100EBD07001EA60008115012901DDFD
:101E90004FF0FF3100224FEA850CBCF1180F06D33A
:101EA0001346ACF118004FF08052C24003E04FF4EB
:101EB000801323FA0CF30CF10C0CBCF1200F04D3AB
:101EC000ACF1200C09FA0CF001E007FA0CF0002943
:101ED0004FF0004801DD18B90FE00ED140450CD39A
:101EE00019EB02095F4121B9404502D19F4329EA1C
:101EF0000209BBEB175F00D0761C2088000502D5D5
:101F00007B48784402E07A487844193808AA30239C
:101F100002F80A30037C0AF10101002E0AF1020ADC
:101F200053546A4602DC4FF0300101E04FF03101BA
:101F30004FF001088DF8001002D0A6F2FF3603E042
:101F400059EA470100D06B4E002D02DC21780907C9
:101F500004D54FF002082E218DF80110C44600214F
:101F60000BE0C7F303433F01C35C491C6D1E02F83D
:101F70000830052908F1010801DA002DF1DC002103
:101F80000CE000EB1973491C1B786D1E082902F840
:101F900008304FEA091908F1010801DA002DF0DCD8
:101FA00021688B0602D516E0A8F10108E04505DDA1
:101FB00002EB080313F8013C302BF5D0B8F1000F09
:101FC00009DD02EB080313F8013C2E2B03D10907AE
:101FD00001D4A8F10108002D05DD3E2102F808100A
:101FE0006D1E08F10108407C002E02F8080008F17F
:101FF000010804DA2D20764202F8080002E02B20C6
:1020000002F808000A214FF47A70864208F10108AC
:102010000BDB96FBF0F3303302F8083096FBF0F35D
:1020200008F1010800FB136601E0642E0CDB64205C
:1020300096FBF0F3303302F8083096FBF0F308F12A
:10204000010800FB136601E00A2E06DB96FBF1F0A7
:10205000303002F8080008F1010896FBF1F001FBAE
:102060001060303002F80800A16908F1010808EB9F
:10207000050202EB0A00081AA0612078C00602D40B
:102080002046FEF7B9FB216A08AE01EB0A00206288
:1020900004E0D4E9012116F8010B9047BAF1010AD6
:1020A000F7D22078C00602D52046FEF7A5FB6E4683
:1020B00009E016F8010B3E280FD0D4E90121904722
:1020C000206A401C2062B8F10108F2D22046FEF7D7
:1020D000A9FB09B00320BDE8F08F206A28442062E4
:1020E00003E0D4E90121302090476D1EEBD3F8E7DF
:1020F000FDA0080002FCFFFF01694A1C026108788C
:10210000704700B58FB0CDE9013100210591054937
:102110007944CDE9031011466846FEF7FFFC0FB085
:1021200000BD0000E5FFFFFF0A6802F8010B0A602E
:102130007047D1E900239A4202D2531C0B60107001
:10214000704710B5436913B1AFF3008001E0FEF7AB
:102150008CFB012010BD127800F124010A700022CE
:102160004A700122EDE711684FF0FF32E9E710B540
:10217000436913B1AFF3008001E0FEF7EFFB0120EC
:1021800010BD128800F1240182840022C284012241
:10219000EDE711684FF0FF32E9E700002DE9F0416B
:1021A0008046D21D22F007020025D2E90002F5295F
:1021B00015A614D0011E72F1000106DA0023D0EB3F
:1021C000030063EB020211A608E0D8F800108B07A9
:1021D00001D50FA602E0490701D50EA6012511463B
:1021E000002408F1240704E000F0FFFA30323A55E9
:1021F000641C50EA0102F7D12B4632462146404684
:10220000BDE8F041FFF791BB000000002D00000089
:102210002B000000200000003A2800D2303820F0C7
:102220002002412A01D3A2F13700884201D34FF0A6
:10223000FF307047026811441378016018467047F8
:10224000D160054979445161044979441162002102
:102250001161114600F058BBEDFFFFFF270600009B
:10226000426842B1016811F8013B23B1521EC0E936
:102270000012184670470121C160881E70474268ED
:102280005AB1C368016843B983688B4205D0491EBF
:10229000521CC0E90012002070474FF0FF30704719
:1022A0002DE9F05F824615468B4600270AF10104AE
:1022B000B9460078302801D09DB113E014F8010B25
:1022C0000127782803D0582801D045B10AE00DB184
:1022D000102D07D1002714F8010B102502E0082566
:1022E00000E00A250026B0460EE005FB080005FBCD
:1022F00006F101271FFA80F801EB1046B6F5803F82
:1023000000D3B94614F8010B2946FFF785FF0028D2
:10231000EBDABBF1000F05D00FB1641E00E05446AC
:10232000CBF80040B9F1000F06D0FEF7BBF8022150
:102330000160C81EBDE8F09F48EA0640FAE70000C9
:102340000FB4002300B589B00CA900910B99CB60A4
:10235000214B7B440693214B7B44079304236FF06E
:102360000042CDE901321E4A7A446B460892024689
:10237000002052F012FB09B05DF814FB70B5064660
:102380004FF0FF3015460C46324686B00091CDE93D
:10239000010169460020049004A8FFF7D1FF02461E
:1023A0000498211825B108B1084600E020462860AD
:1023B000049800280DD0002A02DD0098884208D039
:1023C0003246081B69460094CDE9010404A8FFF7D2
:1023D000B7FF06B070BD00000BFFFFFF23FFFFFF3C
:1023E000090500007CB5054600236846CDE90033A9
:1023F000FFF7C4FF6946284629F0A2F87CBD00001B
:10240000C16821F4001141F08001C16000218160A8
:10241000016070472DE9F047814614460E464FF0A3
:10242000FF383248D5685769054209D03846A16956
:102430002AF072F8002811DB2C48C0430540E56003
:102440002B463246494638462AF072F8A16920F0F8
:102450000042B21A11440028A16103D02046FFF7C0
:10246000CFFF4046BDE8F08770B504460569C06AF5
:102470006168884200D80846E16821F42011E160D3
:10248000C90312D5A84208D02246411B2846FFF7AF
:10249000C1FF10B14FF0FF3070BD0020E562C4E90C
:1024A0000150E06820F48030E060002070BD10B57D
:1024B0000446C06820F02000E060A16AA06988425C
:1024C0000DD02046FFF7D0FFE06820F4405040F0E8
:1024D0001000E060A06AA0612069E062606044F2E0
:1024E0004001E0688843E06010BD00001000020079
:1024F00010B542485421FFF7BEF841485421FFF778
:10250000BAF840485421FFF7B6F83F493B483C4AE7
:102510003F4B08603D490A603A491960531C036506
:10252000481C1065012008653B48344A39A17844AD
:10253000FEF7B4FD20B9384878440A3800F036FE7A
:1025400037482F4A35A17844FEF7A8FD20B9344812
:1025500078440A3800F02AFE32482A4A2FA17844EB
:10256000FEF79CFD20B92F4878440A3800F01EFE83
:1025700040232248DC0000212246FEF76CFD20B1FA
:1025800025487844543800F011FE1D482246402367
:102590000021FEF760FD20B121487844543800F056
:1025A00005FE1848224610230021FEF754FD00289E
:1025B00006D01C487844BDE81040563800F0F6BDFF
:1025C00010BD104870B5006D20F001040B48FEF7F7
:1025D000DBFD0B48FEF7D8FD0A48FEF7D5FD09E004
:1025E000206D20F001052046FEF7CEFD2046FDF7C8
:1025F0008CFF2C46002CF3D170BD000088BB00106E
:102600006C3D0120DCBB00104C04001008080020C9
:102610005004001072000000A424050077000000A0
:10262000942405008524050010B50446FFF718F929
:10263000D0E902121068104444F8100B506810449E
:1026400044F80C0C9068104444F8080C886808445E
:1026500044F8040CC86808442060086908446060B5
:1026600048690844A06088690844E060C869084473
:102670002061086A084460610878207648786076AE
:102680008878A076C878E0760879207748796077EE
:102690008879A077C879E07710BD70B516460C46EA
:1026A0000546FDF7F7FE036893F80101012806D0FF
:1026B000FF2C0FD8185D68B101202C7070BDD3F8C5
:1026C00007013246214603F2071303442846BDE8BA
:1026D000704018474FF0FF3070BD2DE9F0410646BD
:1026E000FFF7C6F88046454613E016B1E068B042F1
:1026F0000ED120682860D4E90101D8F8007088471D
:102700002046FDF702FFD8F80000B842EBD100E008
:1027100025462C68002CE8D1BDE8F08110B500F00A
:102720002DFDBDE8104000F023BD10B500F04CFDBC
:10273000BDE8104000F01CBD431A28BF9A427EF647
:102740003EAF104410F0030F11441EBF11F8013DBD
:10275000521E00F8013D10F0030F7FF4F6AF103A5F
:10276000C0F00A8010B531E91850103A20E918502D
:10277000BFF4F9AFBDE81040530724BF31E908109A
:1027800020E9081044BF51F8043D40F8043D12F020
:10279000030F08BF7047D20728BF31F8023D48BF7A
:1027A00011F8012C28BF20F8023D48BF00F8012C89
:1027B000704700F021BD034640688C46002818BFD2
:1027C00088423CBF03464068F8D3186818448842E2
:1027D00007D00CF1030020F00700001D411A521A27
:1027E0000146081D0A60FDF790BE30B5B0F10A023F
:1027F0004FEA900E71F100034EEA817EB0EB0E00BD
:1028000061EB91014FEA101E4EEA017E10EB0E00C3
:1028100041EB11114FEA102E4EEA016E10EB0E0043
:1028200041EB11214FEA104E4EEA014E10EB0E0023
:1028300041EB1141401841F100014FEAD00040EA5C
:1028400041704FEAD10110EB80054FEA810444EA60
:10285000907444EB01046D1944EB0404521BA34132
:102860004FF0000348BF0A3200D530BD401C41F193
:10287000000130BD10B50446FDF70CFE0068005D98
:1028800000F0010010BD00002DE9F0411F46044694
:1028900003260168072A01F4006004DB08B116A5CD
:1028A00005E016A503E008B115A500E015A521F087
:1028B00010002060A069C01EA0610FB1401EA06181
:1028C0002046FDF799FF4FB1D4E9012138469047E2
:1028D000206A401C2062C01C206206E0206AFAE7E1
:1028E000D4E9012115F8010B9047761EF8D2204655
:1028F000FDF798FFBDE8F0814E414E006E616E001D
:10290000494E4600696E66002DE9F34F4FF0000A0C
:102910000C4656468DB001200C9001F10C000B9036
:1029200062690B9801219047051E2DD0252D2CD0D2
:10293000216A8847C0B162690B9801219047216ADA
:1029400088470028F7D16269411E0B98904700E044
:10295000761CA1690D988847216A88470028F7D11D
:10296000E1690D988847DBE7A1690D988847A8427F
:10297000074601D1761CD3E7E1690D9888477F1C93
:1029800002D1BAF1000F6FD06BE162690B9800279A
:102990003D46394690472A2804D162690B980121A7
:1029A00090470125DFF8D08262690B98012190479A
:1029B000A0F130010A290AD24745E5DC07EB87017F
:1029C00000EB4107303FDFD445F01005ECE7E906A6
:1029D00001D46FF000476C280AD04C2814D0682826
:1029E00015D06A280DD074281CD07A281AD01DE082
:1029F00062690B98012190476C2802D045F00405CC
:102A000014E045F002050DE045F020050AE062699A
:102A10000B9801219047682802D045F0080505E091
:102A200045F4006562690B9801219047C4E901579C
:102A300065283DD019DC58287AD00CDC452837D0E1
:102A400004DC252826D041289ED131E046282FD00D
:102A5000472899D12CE05B2877D0612828D06328BB
:102A60007CD0642823D15AE0F6E06F2848D008DCF7
:102A700066281DD067281BD0692821D06E2816D162
:102A800027E0702845D0732868D0752847D078286B
:102A90000DD14DE0A1690D988847252805463FF4E2
:102AA00069AFE1690D9888476D1C3FF46AAFD8E0C3
:102AB0000D9923466A466FF0010051F06EFFC5E0A4
:102AC00045F0400023464FF000026060A80736D46E
:102AD0003EE0E8077FF447AF2068011D21600068F1
:102AE000290501D506701BE7290701D5068017E7E0
:102AF000A90703D5F117C0E9006111E706600FE7E8
:102B000045F0400023464FF008026060A80716D445
:102B10001EE040F60E0125EA0100606016E045F077
:102B2000400023464FF00A026060A80707D40FE078
:102B300045F040006060A80708D5234610220D9993
:102B40006FF00100AFF3008080E007E01022234621
:102B50000D996FF00100FEF7C3F877E04FF0000920
:102B600063284F46C8464B46CB4602D05B2806D06A
:102B700038E0E80601D40120A060012732E0626954
:102B8000D4F80CB00B98012190475E2807D14FF084
:102B9000010949466269D4F80CB00B989047216945
:102BA00039B900210A4603AB43F82120491C082902
:102BB000FADBD8B3216949B308F1010862690B98BF
:102BC000012190475D28F4D1B9F1000F09D0002010
:102BD00003A951F82020D24341F82020401C0828A6
:102BE000F7DB03AB2069002820794FEA40701ED044
:102BF0005B462246CDF80080CDE901970D9900286B
:102C00006FF0010020DAAFF300801FE0C11703AAC4
:102C100000EBD1614B1121F01F0102EB8302411A3D
:102C200013680120884003431360C7E719E00D993A
:102C3000224600286FF00100009702DAAFF300800F
:102C400004E0AFF3008001E0AFF3008000280ADA6F
:102C5000401C06D10C9820B14FF0FF300FB0BDE8FA
:102C6000F08F5046FAE7E90701D10AF1010A06445C
:102C700000200C9054E60000CCCCCC0C2DE9F047A1
:102C8000814616468AB0354878440DC88DE80D0057
:102C900032487844801C03AC0DC884E80D0041F62E
:102CA0009B300844372190FBF1F290FBF1F5A5F140
:102CB000800501FB12041B3C02D56442012000E0A8
:102CC0000020DFF898A080460027FA44AAF1BE0A47
:102CD0000EE0E0070AD03246684607EB47010123C1
:102CE0000AEB810101F028FC8DE8070064107F1CCD
:102CF000002CEED1194F7F44AE3F19E0E80715D004
:102D000007EB04100DF1180A90E80E008AE80E0097
:102D1000C068F04201D1981908903246012306A9F3
:102D200003A801F009FC03AB83E807006D10641CE5
:102D3000002DE3D14FF0010332466946B8F1000F90
:102D400003A802D001F0CEFB01E001F0F5FBC9E9D8
:102D50000001C9F808200AB0BDE8F08728940800EF
:102D600070B50D4601461446D36850692A4629F0CD
:102D7000C3FB002807DA411C07D0E16820F00040BF
:102D800041F48041E160281A70BD2046FFF738FB0E
:102D90004FF0FF3070BDC1680022026021F4805105
:102DA00041F0400111F4C06FC16001D082607047F2
:102DB00002694168891AC269891A816070472DE9E0
:102DC000F0470446C06840F48000E060010312D57B
:102DD00020F40020E060810606D4E26A61688A423D
:102DE00000D80A46511A216040F40010E06094F8BF
:102DF0002500BDE8F08720F40010E060800602D5D1
:102E00002046FFF754FBE06842F281014FF0FF39A2
:102E10000140012903D02046FFF7F2FAB6E021680D
:102E2000002600290ADAC94340F480502160C4E931
:102E300002606068411C61600078DAE744F240019A
:102E400008420CD020F4A04040F040002660E06032
:102E500021696068401AE169401AA06096E0216922
:102E600091B9C00310D4E069FDF720FB2061B0B137
:102E7000E06840F4006010F4407FE06002D140F46C
:102E80008070E06020696060E068D4F814A0C1063A
:102E90001AD5C0030ED52046FFF7E6FA14E004F178
:102EA000240020610120E061E06820F4407040F4DB
:102EB0008060E6E721696068401AA16901445046D4
:102EC00029F02AFB0028A6DBE068C0032AD5616848
:102ED000E06A884200D808462169451AE069471B24
:102EE0001BD02046D4F81880FFF7BEFA08EB050186
:102EF0005046C4F8188029F00FFB00288BDBE068EF
:102F000040F40030E060000202D5A0692844A061CE
:102F1000E1692069C91B45180DE02046FFF7A4FAB6
:102F2000E769F5E725696168D4E90607491BE562A9
:102F300008446560A061E06820F0100010F4C06FE4
:102F4000E06002D0204600F01DFDE06840F48050B3
:102F5000C4E90260000205D52069E06260606FF09C
:102F6000010046E7224639462846FFF7F9FE411C94
:102F70000CD02918E16258B1401E2060681C6060C6
:102F8000E06840F40030E060287832E7484630E7F7
:102F900065602046FFF7FFFEF8E72DE9F04705469C
:102FA0000C46C86820F4201040F48000C8608006F9
:102FB00002D50846FFF77BFAE06841F282014FF044
:102FC000FF390140022903D02046FFF719FAB5E086
:102FD00000F42041B1F5004F0FD1C00306D5616860
:102FE000E06A884200D80846606006E02069E06236
:102FF0006060606929F02BFAA061A0680022EEB23F
:1030000000280DDAE1688B050AD4C043A06041F4C2
:1030100090302260E0606068411C61600670A5E04D
:10302000E0689046226040F40050E060206968BB90
:10303000606929F00EFA012704F12405A0B1A089E6
:1030400010F4407F08D0E069FDF730FA206118B134
:10305000E06840F4006016E0E7612561E06820F474
:10306000407040F480600EE0E069FDF71FFA002830
:103070002061F1D0E06840F4006010F4407FE0602F
:1030800002D140F48070E06020696060E0682569EA
:103090006FF0010AC1051FD56168E06A884200D857
:1030A0000846411B04D022462846FFF7B3F9F0BB7F
:1030B000E068010203D5E562C4E9015854E0691CE7
:1030C000E1626160E16940F48030491EC4E90210A8
:1030D00030462E70BDE8F087010202D500F4803240
:1030E0000AE06068411C61600670E0680A2E40F4E6
:1030F0008030E06006D00022E16A6068814203D936
:103100000B4602E00122F7E70346A7895B1B7F0518
:1031100003D4E7699F4200DDE2B1814200D8014655
:10312000E5620F1AC4E90158002B09DD00E005E053
:10313000224619462846FFF76DF908B14846C9E707
:1031400047B1A069E5626560C01BA061E06840F01E
:103150001000E060E068000208D56168A069E562DF
:10316000491B08446560A0615046B3E73046B1E7AB
:10317000002801D029F06AB97047000010B500217D
:1031800002A000F01BFC012010BD00005349474184
:103190004252543A2041626E6F726D616C207465C8
:1031A000726D696E6174696F6E00000010B500F099
:1031B0001FFCBDE81040FFF7DBBF10B500F032FC8C
:1031C000BDE81040FFF7D4BF10B5002102A000F009
:1031D000F5FB012010BD00005349475056464E3ABA
:1031E0002050757265207669727475616C20666E08
:1031F0002063616C6C65640010B500F00EF8016925
:1032000019B100220261884701E080688047FEF71B
:1032100015F8000010B5FEF711F870B500F048F889
:1032200004680546A4B92020FDF740F9040011D038
:10323000094900202C60C4E900010849A1602073FD
:10324000206160610649A06109B100F013FCE061F2
:10325000204670BDFDF7F2FF0000000015320008A7
:10326000000000007546FEF7F1FAAE46050069461B
:10327000534620F00700854618B020B5FDF7F6F854
:10328000BDE820404FF000064FF000074FF0000867
:103290004FF0000B21F00701AC46ACE8C009ACE8E8
:1032A000C009ACE8C009ACE8C0098D467047000011
:1032B00000487047103F01202DE9FF4F06468BB0B4
:1032C0000878FF2806D0491C2D2805D000244FF08F
:1032D000000908E000200CE00124F8E709EB89036D
:1032E000491C00EB43090878FF28F7D114B1C9F154
:1032F00000008146107800252C46AA4629462D2834
:1033000001D02B2804D1521C2D2813D00020824636
:103310008B461078FF280FD04FF0000C0A21521C6A
:10332000A5FB017804FB018105FB0C11C5194BEBD2
:103330000104EEE70120EAE7002108464FF0000013
:10334000BAF1000F02D000EB80004008C0F38157B3
:10335000012F01DD4FF0FF370E9955EA040009EB0C
:1033600001080BD04FF0020918F5FA7F16DA4FEA80
:10337000CA70002F706008DD012007E04FEACA70B4
:10338000C6E900B00FB0BDE8F08F00203060FDF757
:1033900089F8C0F800901821084616E0B8F5FA7FC1
:1033A00018DD002F02DAF748784401E0F648784447
:1033B000D0E90010C6E9001040EACA707060FDF75D
:1033C00071F8C0F80090142108460FB0BDE8F04F26
:1033D00051F01BBA002108464FF00000B8F100017F
:1033E000099002DAC7F1000200E03A4601DAC8F1BA
:1033F000000106A8FFF742FC06AB93E8070003AB09
:1034000083E8070044F23E005BEA0401009058465E
:1034100004D144F21E012C465D460091210C0904A2
:10342000014306D10099240444EA15442D041039BF
:10343000009104F07F41014306D10099240244EA3F
:1034400015642D020839009104F07041014306D142
:103450000099240144EA15742D01091F009104F01C
:103460004041014306D10099A40044EA9574AD009F
:10347000891E009104F00041084304D100986D19A1
:103480006441401E00904FF001033A466846B8F18F
:10349000000FCDE9014503A902DD01F062F801E06A
:1034A00001F035F8BAF1000F04460D4601D084F062
:1034B0000044002108464FF00000099940F2FF77D0
:1034C000484010F00C0F07D124F00040284303D0EF
:1034D000C4F30A50B84212D1FCF7E4FFC0F80090E0
:1034E000C4F30A50B8420AD1A8487844D0E9001081
:1034F000C6E9001004F000410843706042E7C6E9E5
:1035000000543FE72DE9FF4F1F464FF0000A4FF0F0
:10351000FF38454691B0D7E90146CDF83CA0FEF70B
:103520009FF9C0680168405C1090B96912986D1CE1
:103530008847396A814688470028F6D1B9F1FF3FAC
:103540000AD0002E24F4D06411DDB9F12B0F08D07D
:10355000B9F12D0F0BD102E0404615B013E744F44A
:103560008064B96912986D1C8847761E8146600593
:1035700004A901D52D2000E02B20002E01F1010B24
:103580000DF130088DF810003FDDB9F1690F08D05A
:10359000B9F1490F05D0B9F16E0F02D0B9F14E0F54
:1035A0001CD13B4601A8009580E85002DDE91212CB
:1035B0006FF0020051F0F5F9C11CCED10EE0B969EF
:1035C00012986D1C884781461398761E44F4007447
:1035D00005600F98401C002E0F9016DDB9F1300FDA
:1035E000EDD0B9F1780F02D0B9F1580F0DD10F9885
:1035F00001280AD13B46CDE90054DDE91212001F33
:10360000029651F0CCF9C11CA7D1109989453ED141
:1036100044F0800406E01399681CAAF1010A44F4FE
:1036200000740860B9696D1C1298761E88473028AE
:103630008146F0D02BE01099894505D1200603D4AE
:10364000761E44F0800418E0484628F0BAFD08B31E
:10365000761E0DF123018B4544F4007408D2A9F1C4
:1036600030000BF8010B200607D5AAF1010003E09A
:10367000200602D40AF101008246A00502D5139962
:10368000681C0860B96912986D1C88478146002E35
:10369000D1DC53E0002E51DDB9F1650F02D0B9F154
:1036A000450F4BD1A00549D5B9696D1C1298761EFE
:1036B00024F440748847002E81460CDD2B2804D06A
:1036C000B9F12D0F07D144F48074B96912986D1CBB
:1036D0008847761E8146E00501D52D2100E02B218B
:1036E00008F8011BCDF8008021E0761E0DF13901AC
:1036F000884544F400740CD2A9F1300010F0FF00AA
:1037000088F8000002D10099884509D908F101081C
:1037100006E0E00501D51E4801E042F20F70824646
:10372000B96912986D1C8847814613980560002E70
:1037300004DD484628F045FD0028D6D1F9691298E5
:103740008847FF2053468BF8000088F800000020CF
:103750000A900B9004AA0CA90AA8FFF7ADFDA005DA
:1037600002D46FF00100F8E614F0240F12D0E00745
:103770001CD13868DDE90A12031D3B600068C0E90E
:10378000001213E014A0080006A00800CA9E08005A
:10379000F1D8FFFF0AA9684627F0D2FEE00705D15D
:1037A0003868009A011D3960006802602846D4E636
:1037B0002DE9FF5F1C468B460646080066D00025B3
:1037C0000299284627680BFB01F963E0002F63DCB0
:1037D000E06948453FDABAF1000F3CD0207B800613
:1037E00001D5A06A04E0A169606808442169401A13
:1037F0002246A9EB050180463046FFF7B1FA0028C2
:1038000012DD8044A8F101010644A161226916F885
:10381000011C0027054411702169491CE1626160A7
:10382000E16841F40031E160411C03D010B1207B1C
:10383000400644D52046FFF7AEFAC4F81880206948
:103840006060E062E068276020F40030E060E069DA
:103850004042A06018E0484503DAE06840F4000008
:10386000E0602046FFF7ABFAE16821F40001E16077
:10387000411C08D0811C0CD02768002809DB6D1C76
:1038800006F8010B1BE02760B5FBFBF004B0BDE8B8
:10389000F09F0120824612E0A9EB0500B846B8422D
:1038A00000DA8046304642466168FDF701FE6168F5
:1038B000A7EB0807464401EB0800454460604D450E
:1038C00084DB27600298E1E72DE9F0471C46924629
:1038D000804602FB01F511B3A76800203DE0002FF0
:1038E0003DDCE069A8421DDAB9F1000F1AD022468A
:1038F00029464046FEF78EFD08B1A7602AE0E06841
:1039000010F4C06F01D0002008E022696168891AB4
:10391000E269511AC003A16001D44842A060504638
:10392000BDE8F087A84203DAE06840F40000E060F8
:10393000214698F80000FFF730FBE16821F4000110
:10394000E160411C06D0A768002805DB6D1E08F168
:10395000010813E00020E3E7012081460EE0AF42BA
:103960003E4600DD2E46414632466068FDF7A0FD2A
:103970006068BF1BAD1B3044B0446060002DAEDCFE
:10398000A760CCE770B5054640F202260A4C0FE06E
:1039900094F85000C00708D0AC4206D0E06836EA80
:1039A000000002D12046FDF787FA206D20F00104C7
:1039B000002CEDD170BD000088BB001070B505462D
:1039C0000C460A2000E06D1C28F0CCFD35B12878AB
:1039D0000028F8D102E0641C28F0C4FD14B120785E
:1039E0000028F8D1BDE870400A2028F0BBBD0000D7
:1039F00010B5014602A0FFF7E1FF012010BD000055
:103A000053494752545245443A205265646972659D
:103A100063743A2063616E2774206F70656E3A207C
:103A20000000000010B5012805D0002103A0FFF719
:103A3000C5FF012010BD09A1F8E700005349475216
:103A4000544D454D3A204F7574206F66206865616E
:103A500070206D656D6F7279000000003A20486536
:103A60006170206D656D6F727920636F7272757011
:103A70007465640010B58820FCF718FD002801D09B
:103A80000021017010BD802902D808B1017809B168
:103A900000207047012100F8081B704718B100F1A1
:103AA0000802914201D00020704700210170704748
:103AB0002DE9FF4F1F464FF03C0987B04FF0004201
:103AC000DDE9141001F10108DDF858A002EA4050C8
:103AD0000390002005908346054604460490B9698A
:103AE000461E08988847AAF1010A0290BAF1000F11
:103AF0003BDD02982E2815D01021FEF78DFB002803
:103B00002EDB4FF0010B0599014317D0B9F1000FDF
:103B10000BDB4A46C11700F0F5F905430C43A9F148
:103B2000040905E0012004900BE008B145F001050F
:103B300001200590049820B9361D02E0049800B1D8
:103B4000361FB969089808F101088847BBF1000FD2
:103B5000AAF1010A0290C9D00999C1F80080C5E70D
:103B60000298702808D0502806D0F969089888472C
:103B7000BBF1000F14D04FE0002002900120BBF1F8
:103B8000000F049009D0B969089808F10108884726
:103B9000AAF10109B9F1000F07DCF9690898884713
:103BA0006FF001000BB0BDE8F08F2B2804D02D285A
:103BB0000CD14FF0FF300490B969089808F1010862
:103BC0008847A9F10109B9F1000FE6DD411CE4D0F5
:103BD0000A21FEF721FB0028DFDB029908F101082A
:103BE00001EB810100EB41000290B9690898884718
:103BF0000A21FEF711FB099AA9F10109B9F1000F99
:103C0000C2F8008001DD0028E7DAF96908988847E2
:103C10000499029800FB016655EA040004D004F000
:103C20004041090002D006E0039898E0A40044EA6D
:103C30009574AD00B61E04F00041080002D16D1964
:103C40006441761E159810F0240F03D04FF00B0935
:103C50005C4803E04FF028096FF07D00824656452E
:103C600007DAAAEB06018944B9F1410F01DD4FF0F3
:103C7000410901200021A9F1010200F043F90246A7
:103C800028400B462140084301D0012100E00021DB
:103C9000501E029143F1FF3128402140084301D0DA
:103CA000012000E000200299834651EA0B014FD029
:103CB000002108464FF00000039900F4400039B19C
:103CC00000EB80004FF4400100EBD07001EA60008F
:103CD0008015012802DD4FF0FF3000E013D0401CBA
:103CE00036D0029860B3BBF1000F0CD14A460120D8
:103CF000002100F007F928402140084301D00120AD
:103D000000E00020E0B101204A46002100F0FAF86E
:103D1000034640190A4661412D1A8C4111D3B9F16D
:103D2000400F09DD159810F0240F02D0AAF13406D7
:103D300003E0AAF1170600E0761C00254FF00044CE
:103D400006E05B1E42F1FF3220EA030521EA02048D
:103D5000CAF10100B04206DA1B49039808430190FA
:103D6000002000900EE0039AC4F3D321E80A0A432E
:103D7000164940EA44500A433146CDE900026846FC
:103D800027F086FE159810F0240F0BD01598C00769
:103D900015D13868DDE90012031D3B600068C0E9F9
:103DA00000120CE002A8694627F0CAFB1598C0076C
:103DB00005D13868029A011D3960006802604046EA
:103DC000F0E6000002FCFFFF0000F07F0000F03F83
:103DD0002DE9FF4F92461D4685B04FF00041DDE9C9
:103DE000124BDDE914727F1E01EA4B50414940F04D
:103DF000FF4940EA0108002122F0200049280491EF
:103E000002D04E2828D04CE03BA0012607C88DE800
:103E10000700A9690698641C88477F1E014606D4DE
:103E20001DF8060018B121F0200181420BD0E9698C
:103E300006988847032E34D0082E32D06FF0010048
:103E400009B0BDE8F08F761C032E01D0082EE0D11A
:103E5000601CCAF80000DCE7A9690698641C884762
:103E60007F1E2AD420F02000412826D1A969069877
:103E7000641C88477F1E20D420F020004E281CD1CF
:103E8000A9690698641C88477F1E48F4002849F4F5
:103E90008009CAF8004001D4282806D0E9690698AC
:103EA00088475FEACB7012D022E0A9690698641CAB
:103EB00088477F1E01D4002803DAE96906988847FD
:103EC000BCE72928F1D1641CCAF80040E9E71BF0DF
:103ED000240F07D028680499031D2B600068C0E9EF
:103EE000001805E02868021D2A600068C0F80090EC
:103EF0002046A5E70000F07F494E46494E495459F7
:103F000000000000B2F120030AD5C2F1200301FA3B
:103F100002F120FA03F300FA02F041EA03017047CC
:103F200000FA03F14FF0000070474CF6767C8109EF
:103F30004FF4FC42C0F6080C02EA40203CF9113074
:103F4000C0F500420CEB4101B1F902105A430023C5
:103F5000C7F6FF731A4011FB00206FF0010101EA60
:103F6000D03000B270475FEA400C08BF91F0000FFC
:103F70004FEA8C234FEAC12243EA51514FEA1C50C9
:103F800018BF00F5F0404FEA300018BF41F0004183
:103F90005FEA6C5C00F02980BCF1FF3F08BF40F095
:103FA00080407047130C06BF12044FF0100C4FF006
:103FB000000C130E04BF12020CF1080C130F04BF07
:103FC00012010CF1040C930F04BF92000CF1020CCF
:103FD000D30F04BF52000CF1010C11464FF0000248
:103FE000A0F11F00A0EB0C00704711F0004F08BFBC
:103FF000704731F000413FF4D5AF0B0C06BF090408
:104000004FF0100C4FF0000C0B0E04BF09020CF126
:10401000080C0B0F04BF09010CF1040C8B0F04BF3B
:1040200089000CF1020CCB0F04BF49000CF1010C0C
:10403000CCF12003A0EB0C0022FA03F302FA0CF2FD
:1040400041EA030100F10100704720F07F4C80EA53
:10405000030023F07F47ACEB070303F57C5300F02C
:10406000004003F1FF032DE980494FEA154B09B4E5
:104070004FEA144325EA0B4E24EA03480FF20426C4
:1040800006EB132749083E785FEA320203FB066716
:10409000C7F5000707FB06F64FEA54374FEAD64646
:1040A00006F1020607FB066CCCF1005C4FEA1C47E8
:1040B0002CEA074C07FB06F40CFB06F504EB15464F
:1040C0004FEA961634BF00204FF000404FEAD13738
:1040D00006FB07FC4FEA1C4C0CFB0BF7D21B03FB47
:1040E0000CF761EB07010CFB0EF7B0EB074072EB2E
:1040F00017420CFB08F734BFA2EB0742B2EB0742B2
:1041000061EB17414FEA0C444FEA910706FB07FCAD
:104110004FEA1C4C0CFB0BF7B0EBC74072EB57326D
:1041200003FB0CF734BFA2EBC742B2EBC74261EB13
:1041300057310CFB0EF7B0EBC70072EB57720CFB5C
:1041400008F734BFA2EBC702B2EBC70261EB5771AD
:10415000039F4FEA816141EA921104EBCC044FEADC
:10416000D1374FEA826206FB07FC42EA90124FEA1F
:1041700080604FEA1C4C0CFB0BF7D21B03FB0CF7C7
:1041800061EB07010CFB0EF7B0EB074072EB174237
:104190000CFB08F734BFA2EB0742B2EB074261EB1E
:1041A00017414FEA8C554FEA910704EB9C2406FB1C
:1041B00007FC4FEA1C4C0CFB0BF7B0EBC74072EB53
:1041C000573203FB0CF734BFA2EBC742B2EBC74236
:1041D00061EB57310CFB0EF7B0EBC70072EB577277
:1041E0000CFB08F734BFA2EBC702B2EBC70261EBCE
:1041F000577115EB4C254FEA816141EA92114FEA64
:1042000082624FEAD13742EA901206FB07FC44F182
:1042100000044FEA80604FEA1C4C0CFB0BF7D21BEA
:1042200003FB0CF761EB07010CFB0EF7B0EB07404B
:1042300072EB17420CFB08F734BFA2EB0742B2EB5C
:10424000074261EB174115EB1C154FEA813141EA3A
:1042500092414FEA823242EA90424FEA80304FEA7E
:104260000C7644F1000448EA03434EEA0B484FF051
:10427000000EB2EB080C71EB030724BF624639460F
:104280004EEB0E0E4FF0000B0018524149414BEB24
:104290000B0BB2EB080C71EB03077BF1000B24BF97
:1042A000624639464EEB0E0E4FF0000B001852419D
:1042B00049414BEB0B0BB2EB080C71EB03077BF1A5
:1042C000000B24BF624639464EEB0E0E51EA020740
:1042D00018BF46F0010616EB0E7655F1000254F1B8
:1042E000000103D5BDE88901BDE80088BDE889016A
:1042F000BDE80048B619524141EB0101A3F10103A9
:10430000704780807F7E7D7C7B7A79787776767542
:104310007473727171706F6E6E6D6C6C6B6A6A69BA
:104320006868676666656464636362616160605F54
:104330005F5E5E5D5D5C5C5B5B5A5A5959585857CD
:104340005756565555555454535352525251515035
:1043500050504F4F4F4E4E4D4D4D4C4C4C4B4B4B88
:104360004A4A4A49494948484847474747464646CE
:104370004545454444444443434343424242424109
:104380004141000046EA0646A3F570534FEA16463F
:1043900046EA42564FEAD22242EA415210B54FEA6B
:1043A000D121A3F1010300F02FF820F0004000F12B
:1043B000020C00F0004701EB00501146BCF5006F05
:1043C00040EA070000D210BDBAF1000F0AD01CB5B8
:1043D00003B44FF004004FF004014FF000000FBC95
:1043E000BDE810404FF00001BBF1010FB9BF044818
:1043F0004FF0FF310348002140EA070010BD00BF25
:10440000FFFFEF7F0000F07F002B9C4630D4770049
:104410002BD01CB54FEA370703B44FF010004FF014
:104420001001BAF1000F06D0BCF1000FDCBF40F064
:10443000080040F008014FF000000FBCBDE810403C
:104440000BF1010BBBF1010F08BF5FEA170722BF99
:1044500012F1010211F101014FF0004143F100039B
:1044600000F0004043EA00007047F9D35708D0E756
:1044700046EA064613F1400F4FEA16461FDD13F1D8
:10448000200FDFBF16430A46002120335B42BED017
:10449000C3F1200746EA064602FA07F74FEA164636
:1044A00046EA0706C3F1200722FA03F201FA07F7EA
:1044B00021FA03F14FF0000342EA0702A7E746EAB8
:1044C000020646EA06464FEA164646EA0106BCBF21
:1044D00046EA0646360C4FF000034FF000024FF05C
:1044E000000194E72DE9804C9A46934670B491E818
:1044F000380007C831EA400C48BF34EA430C03D502
:10450000FFF7A3FDFFF780FFF0BCBDE8008C2DE9AD
:10451000804C9A46934670B491E8380007C831EA57
:10452000400C48BF34EA430C03D5FFF78EFDFFF77C
:1045300029FFF0BCBDE8008C2DE9804C9A469346DB
:1045400070B491E8380007C810F0804F08BF13F02E
:10455000804F03D100F01AF8FFF756FFF0BCBDE81A
:10456000008C2DE9804C9A46934670B491E838004F
:1045700007C810F0804F08BF13F0804F03D100F040
:1045800005F8FFF7FFFEF0BCBDE8008C20F07F4788
:1045900080EA030023F07F4C07EB0C03A3F57C5368
:1045A00000F00040A3F1FE0392F0000F00F0B38092
:1045B00095F0000F00F077802DE901494FEA114096
:1045C0004FEA144621EA004800FB06FC24EA0647AD
:1045D00008FB06F607FB08F800FB07F718EB064890
:1045E0004CEB164C4FEA124B18EB07484FEA1546B6
:1045F0004CEB174022EA0B4E0BFB06FC25EA064764
:104600000EFB06F607FB0EFE0BFB07F71EEB064E36
:104610004CEB164C4FF000061EEB074E4CEB174BC5
:1046200018EB0B0840F1000018EB0E0B58EB0008DC
:1046300040F100008F1A4FF000013CBFC943661BD8
:1046400014BFB5EB040C00213CBFC943F61B4FEA75
:1046500017444EEA8E0E27EA04454FEA1C4704FB36
:1046600007622CEA074C05FB07F70CFB05F604FB79
:104670000CFC16EB074642EB174216EB0C4642EBDE
:104680001C421BEB060658EB0202414146EA9E061D
:1046900001D5BDE80189B619524141EB0101A3F1F1
:1046A0000103BDE801894FEA14454FEA114724EAA6
:1046B000054621EA074C05FB07F406FB07F70CFB50
:1046C00006F105FB0CFC11EB074144EB17444FEAE4
:1046D000124711EB0C4144EB1C4422EA074C05FB4A
:1046E00007F206FB07F70CFB06F605FB0CFC16EBC6
:1046F000074642EB174216EB0C4642EB1C456A1884
:1047000054F1000148BF7047B619524141EB010115
:10471000A3F10103704795F0000F37D04FEA114223
:104720004FEA144721EA024624EA074C02FB07F14C
:1047300006FB07F70CFB06F402FB0CFC14EB07442A
:1047400041EB17414FEA154714EB0C4441EB1C4178
:1047500025EA074C02FB07F506FB07F70CFB06F6FC
:1047600002FB0CFC16EB074645EB174516EB0C4617
:1047700045EB1C42121951F1000148BF7047B619B0
:10478000524141EB0101A3F1010370474FEA144587
:104790004FEA114724EA054621EA074C05FB07F1D9
:1047A00006FB07F70CFB06F24FF0000605FB0CFCBE
:1047B00012EB074241EB174112EB0C4251EB1C414B
:1047C00048BF7047921841EB0101A3F10103704704
:1047D00070B5264D0446264E687848B90020FF2162
:1047E00026F81010401CC0B21228F9D301206870BE
:1047F00034B3012C24D0022C22D0032C20D0042C42
:104800001ED0052C1CD0062C1AD0072C18D0082C32
:1048100016D0092C14D00A2C12D00B2C10D00C2C32
:104820000ED00D2C0CD00E2C0AD00F2C08D0102C32
:1048300006D0112C04D0122C02D04FF0FF3070BDE6
:10484000204600F017F8401C02D06FF0010070BD48
:104850002878122802D36FF0020070BD26F81040AD
:10486000401CC0B22870401E70BD0000380400100B
:10487000EC3C01200A4910B502460020074B09789C
:1048800006E000BF33F81040944205D0401CC0B28F
:104890008842F7D34FF0FF3010BD0000EC3C012000
:1048A0003804001010B5C043064B07E011F8014B67
:1048B0004440E4B253F8244084EA1020521EF5D25A
:1048C000C04310BD64C30708044A01238340106835
:1048D00009B1184300E0984310607047007400402D
:1048E00030B5084C236840F6FE7282409343D1E90C
:1048F00000252A43D1E902510D432A4382401A433D
:10490000226030BD00740040002101604160816080
:10491000C160704770B500F043FD0E484FF47A71E6
:104920004FF0FF350068B0FBF1F1491EB1F1807F17
:104930000AD24FF0E02461610F21284625F03DFDA9
:104940000020A061072020612846BDE870400021BA
:1049500025F033BDF407002010B5012000F0EAF87F
:10496000002808D00448006800B18047BDE8104026
:10497000012000F0D9B810BD48BB001070B54FF44D
:104980008065284600F0D6F8234C28B1A16A01B111
:104990008847284600F0C8F84FF40065284600F024
:1049A000C9F828B1E16A01B18847284600F0BCF88F
:1049B0004FF48055284600F0BDF828B1216B01B1B5
:1049C0008847284600F0B0F84FF40055284600F01C
:1049D000B1F828B1616B01B18847284600F0A4F80E
:1049E0004FF48045284600F0A5F828B1A16B01B12D
:1049F0008847284600F098F84FF40045284600F014
:104A000099F8002807D0E16B01B188472846BDE836
:104A1000704000F089B870BD48BB001010B502208E
:104A200000F088F8002808D00448406800B18047AA
:104A3000BDE81040022000F077B810BD48BB001060
:104A400010B5042000F076F8002808D004488068EB
:104A500000B18047BDE81040042000F065B810BDEB
:104A600048BB001010B5082000F064F8002808D0FA
:104A70000448C06800B18047BDE81040082000F03D
:104A800053B810BD48BB001010B5102000F052F80C
:104A9000002808D00448006900B18047BDE81040F4
:104AA000102000F041B810BD48BB001070B52020A8
:104AB00000F040F81B4C28B1606900B1804720200D
:104AC00000F032F8402000F035F828B1A06900B1BC
:104AD0008047402000F028F8802000F02BF828B113
:104AE000E06900B18047802000F01EF84FF4807527
:104AF000284600F01FF828B1216A01B188472846EE
:104B000000F012F84FF40075284600F013F8002862
:104B100007D0616A01B188472846BDE8704000F0BF
:104B200003B870BD48BB0010014908607047000021
:104B3000143C0140034A0146002012680A4200D09A
:104B400001207047143C014010B54EF001FC064CAA
:104B50002168884207D14EF00FFCA168401AE0603E
:104B600021690844206110BD180400100148406804
:104B700080B27047180400102DE9FE430569044611
:104B80008846686D01686965696B01606863417991
:104B900001F0F701417195F83120921E032A07D8E0
:104BA00095F8302021F0070102F003021143417112
:104BB00001900079022240F04000029001A92046B5
:104BC00031F000FC002840D0017901F00F010629E6
:104BD0003BD194F8717015F8336F002184F871108F
:104BE0002970D0E90030E268C2E90030DDE9012334
:104BF000E068C0E90223E06800221030E060009124
:104C0000216A431A12492046103B30F0C7F884F855
:104C1000717001002E7018D0B8F1000F15D0022964
:104C20000CD1E06810F8041C01F00F01042908D031
:104C300008A20BA1204631F0F1F80521204630F002
:104C4000C3FA50F8082C1032F3E7BDE8FE830000E9
:104C50008D0903086E6F206D6573736167650000D1
:104C60006572726F7220696E205F5F6763206D6589
:104C700074616D6574686F642028257329000000D5
:104C8000024901EB0010808900F002B86CB30808FB
:104C9000002102E04008491C89B20128FAD8C8B2B4
:104CA0007047F0B50023012403270D6804FA03F2CE
:104CB0001540954242D1D0F800C05E0007FA06F5D3
:104CC0002CEA050CC0F800C091F804C0D0F800E050
:104CD0000CFA06FC4CEA0E0CC0F800C091F804C0B7
:104CE000BCF1010F02D0BCF1020F1FD1D0F808C0F7
:104CF0002CEA050CC0F808C091F805C0D0F808E00F
:104D00000CFA06FC4CEA0E0CC0F808C0D0F804C03F
:104D10002CEA020CC0F804C0426891F806C00CFAF4
:104D200003FC1FFA8CFC42EA0C024260C268AA43F0
:104D3000C260CA79C568B2402A43C2605B1C102BAE
:104D4000B3D3F0BD4B07DB0E9A40C90810B500EB9A
:104D50008100016A0F249C40A1430162016A114352
:104D6000016210BD7CB504463248844201D1012065
:104D700030E03148844201D102202BE02F488442A8
:104D800001D1042026E02E48844201D1082021E0F0
:104D90002C48844201D110201CE02B48844201D1D0
:104DA000202017E02948844201D1402012E0284801
:104DB000844201D180200DE02648844201D1801533
:104DC00008E02548844201D1401503E0234884428D
:104DD00020D10015FAB1012A1FD0022A20D0032ABF
:104DE00021D0052A21D0062A21D0072A12D1022556
:104DF000002600228DF804508DF8053000918DF8C2
:104E000006608DF80720012100F060F96946204610
:104E1000FFF747FF7CBD0025EBE700250122E9E70E
:104E200000250222E6E70325E3E70125E0E7012567
:104E30002E46DEE700000240000402400008024067
:104E4000000C024000100240001402400018024012
:104E5000001C0240002002400024024000280240C2
:104E600000F18071B1F1007F10D910EE101AB1F18C
:104E70009E4F14DA10EE101AB1F14F4F11D8BDEE5B
:104E8000C00A10EE101A884209DD0AE000EE900A0E
:104E9000F8EEE00AF4EEC00AF1EE10FA01D80120B3
:104EA00070470020704710B543684A68132B0DD037
:104EB00090ED000A032A16D0B4EE400AF1EE10FA83
:104EC0001AD1086800F01AF8A0B115E00068132A9A
:104ED00005D091ED000ABDE81040FFF7C1BF096899
:104EE000814207DA08E0D1ED000AF4EEC00AF1EEE3
:104EF00010FA01DB012010BD002010BD00F180710F
:104F0000B1F1007F10D910EE101AB1F19E4F14DAF2
:104F100010EE101AB1F14F4F11D2BDEEC00A10EED3
:104F2000101A884209DB0AE000EE900AF8EEE00A67
:104F3000F4EEC00AF1EE10FA01D201207047002011
:104F4000704710B543684A68132B0DD090ED000AE6
:104F5000032A16D0B4EE400AF1EE10FA1AD108680E
:104F6000FFF77EFFA0B115E00068132A05D091ED90
:104F7000000ABDE81040FFF7C1BF0968814207DCA5
:104F800008E0D1ED000AF4EEC00AF1EE10FA01DDFE
:104F9000012010BD002010BD30B50F22C47801786B
:104FA0000123FCB1144C246801F1E02104F4E06415
:104FB000C4F5E064C4F30724C4F10405E240447876
:104FC000AC408578154025432A0181F800240078FB
:104FD00000F01F018B404009800000F1E020C0F884
:104FE000003130BD01F01F0083404809800000F10E
:104FF000E020C0F8803130BD0CED00E002490843EC
:1050000002490860704700000000FA050CED00E05E
:105010002DE9F04717460C460646B02810D2244822
:1050200000EB0615686858B1A87B48B144B13FB1A0
:10503000DFF8808004FB07F0D8F80010884202D91E
:105040000020BDE8F0870721304648F039FC3046A3
:1050500000F0B6FB81463046FFF712FE01464A4695
:105060002868FFF76FFED8F800002646B0FBF6F080
:10507000B0FBF7F41049686888420CD00F498842A9
:1050800009D00F49884206D00E49884203D00E4904
:10509000884200D06408002100F0D4FA641E761E15
:1050A000AB7BA2B2B1B2686800F060FDA87BC8E734
:1050B0006CB30808F4070020000001400004014020
:1050C000004001400044014000480140044A0029DA
:1050D000116801D0014300E0814311607047000076
:1050E00030380240044A0029116801D0014300E031
:1050F000814311607047000034380240044A00299F
:10510000116801D0014300E0814311607047000045
:1051100040380240044A0029116801D0014300E0F0
:10512000814311607047000020380240044A002982
:10513000116801D0014300E0814311607047000015
:1051400044380240044A0029116801D0014300E0BC
:1051500081431160704700002438024070B5204A36
:105160001168204C11F00C0104D06610042903D002
:10517000082903D004601BE0066019E01849091FE4
:105180000B68C3F380550B6803F03F0315B1B6FB02
:10519000F3F301E0B4FBF3F30C680968C4F388147B
:1051A0006343C1F30141491C4900B3FBF1F10160C4
:1051B00011680F2303EA11110B4B5C5C0168E1409D
:1051C00041601468072505EA94241C5D21FA04F463
:1051D0008460126805EA52329A5CD140C16070BDA9
:1051E000083802400024F4003B0400100549002860
:1051F000086802D040F0040001E020F004000860DC
:105200007047000000080650034A0146002012685B
:105210000A4200D0012070470408065010B50A4C1D
:10522000207840B901214020FFF75CFF0120FFF703
:10523000DDFF012020700120FFF7E6FF0028FAD0F3
:10524000BDE8104000F002B83A04001001480068C0
:1052500070470000080806500029018802D041F07C
:10526000400101E021F040010180704730B5028823
:105270004C8802F441530A88CD8822438C882C4301
:1052800022430C8922434C8922438C892243CC89B6
:1052900022431A430280828B22F400628283098AAD
:1052A000018230BD0CB500202749019000900A68AA
:1052B00042F480320A604FF4A0430A6802F40032DC
:1052C0000092019A521C0192009A12B9019A9A42D4
:1052D000F3D10A68920334D5012000901A48403077
:1052E000026842F0805202601848026842F440426C
:1052F00002601548083002680260026842F4004209
:105300000260026842F4A0520260031F104A1A6051
:105310000A6842F080720A600A689201FCD50D4A60
:1053200040F205711160016821F00301016001681C
:1053300041F0020101600168C1F381010229FAD143
:105340000CBD00900CBD0000003802400070004011
:10535000086C4007003C024010B54DF0F9FF044CCA
:105360002168884202D14EF007F8A06010BD00000D
:105370001804001010B5502080F31188BFF34F8F30
:10538000BFF36F8F4DF0FEFF18B104494FF080500E
:105390000860002080F3118810BD000004ED00E0DB
:1053A00070B51A4C20681A4A10F00C01194804D044
:1053B0005510042903D0082903D002601BE00560C2
:1053C00019E01249091F0B68C3F380560B6803F0FC
:1053D0003F0316B1B5FBF3F201E0B2FBF3F20B6849
:1053E0000968C3F388135A43C1F30141491C4900BA
:1053F000B2FBF1F101602168064AC1F30311121DED
:10540000515C0268CA40026070BD0000083802406A
:105410000024F400F4070020124810B5016841F49C
:10542000700101601048016841F0010101600E4AFD
:1054300000210832116002680C4B1A400260031D03
:105440000B4A1A60026822F48022026006480C307F
:105450000160FFF727FF03494FF0006080390860C3
:1054600010BD000088ED00E000380240FFFFF6FEAE
:105470001030002402480168491C01607047000098
:10548000F007002070B50F4D0121284600F018FAF2
:105490000D4C30B1216801B188470121284600F048
:1054A000CEF80A4D0121284600F00AFA002808D05B
:1054B000616A01B188472846BDE87040012100F0CB
:1054C000BEB870BD00000140343D012000440140E1
:1054D00010B501218C07204600F0F2F9002809D010
:1054E0000548416801B188472046BDE810400121C8
:1054F00000F0A5B810BD0000343D012010B5094CE6
:105500000121204600F0DCF9002809D00648816816
:1055100001B188472046BDE81040012100F08FB856
:1055200010BD000000040040343D012010B5094CBE
:105530000121204600F0C4F9002809D00648C168BE
:1055400001B188472046BDE81040012100F077B83E
:1055500010BD000000080040343D012010B5094C8A
:105560000121204600F0ACF9002809D00648016965
:1055700001B188472046BDE81040012100F05FB826
:1055800010BD0000000C0040343D012010B5094C56
:105590000121204600F094F9002809D0064841690D
:1055A00001B188472046BDE81040012100F047B80E
:1055B00010BD000000100040343D012010B5094C22
:1055C0000121204600F07CF9002809D006488169B5
:1055D00001B188472046BDE81040012100F02FB8F6
:1055E00010BD000000140040343D012070B50F4D87
:1055F0000121284600F064F90D4C30B1E16901B198
:1056000088470121284600F01AF80A4D0121284652
:1056100000F056F9002808D0216B01B188472846D0
:10562000BDE87040012100F00AB870BD00040140DF
:10563000343D0120001C0040C94301827047C9432A
:10564000018270470029018802D041F0010101E088
:1056500021F0010101807047002930F8441F02D079
:1056600041F4004101E0C1F30E01018070470000E8
:10567000464910B5884206D101210846FFF762FD70
:10568000002101205BE0B0F1804F09D04049884201
:105690000DD101210220FFF73DFD0021022070E025
:1056A00001210846FFF736FD0021012069E0394954
:1056B000884206D101210420FFF72CFD002104209F
:1056C0005FE03549884206D101210820FFF722FD1D
:1056D0000021082055E03149884206D101211020DF
:1056E000FFF718FD002110204BE02D49884206D11C
:1056F00001212020FFF70EFD0021202041E0294953
:10570000884206D101210220FFF71CFD0021022062
:1057100015E02549884202D101210C040AE0234901
:10572000884202D101214C0404E0214988420AD177
:1057300001218C042046FFF705FD00212046BDE82D
:105740001040FFF7FFBC1B49884206D101214020D1
:10575000FFF7E0FC0021402013E01749884206D102
:1057600001218020FFF7D6FC0021802009E01349A9
:1057700088420AD1841501212046FFF7CBFC002185
:105780002046BDE81040FFF7C5BC10BD0000014039
:105790000004004000080040000C004000100040E1
:1057A000001400400004014000400140004401405A
:1057B0000048014000180040001C0040002000404C
:1057C0002DE9F04F314A014602EB0111DFF8C080AC
:1057D00049680020DFF8BCC02F4A304B304CDFF85E
:1057E000C4A0DFF8C4B0314D314E324FDFF8C8905D
:1057F000414522D0B1F1804F1DD061451FD091426B
:105800001DD099421BD04FEAB848414517D0DFF868
:10581000AC80414513D0A14211D051450FD059451C
:105820000DD0A9420BD0B14209D0B94207D04945A9
:1058300029D0BDE8F08F0120FBE7012003E061459E
:1058400001D1022003E0914201D1022003E09942FC
:1058500001D1022003E0A14201D1032003E0514520
:1058600001D1032003E0594501D1032003E0A942FF
:1058700001D1032003E0B14201D1092001E0B94286
:1058800001D04945D5D10920D3E700006CB3080801
:10589000000001400004004000080040000C0040EF
:1058A0000004014000400140004401400048014024
:1058B00000180040001C0040002000400014004080
:1058C00002460020138A92890B4202EA010202D0AA
:1058D000002A00D001207047002A828901D00A43A3
:1058E00000E08A438281704730B5028C22F00102C9
:1058F0000284028C8388048B22F0020224F0730558
:105900000C882C438D8915434A882A430C4DA842A4
:1059100002D00C4DA8420DD122F00805CA8923F40B
:1059200040732A4322F004058A882A430D8A1D43C6
:105930004B8A2B438380048389684163028430BD92
:105940000000014000040140028B22F008020A43DB
:105950000283704770B5028C22F010020284028C20
:105960008488038B0D8823F4E6464FF6FF7303EA21
:10597000052535438E8922F0200203EA06161643D8
:105980004A8803EA02123243104EB04202D0104E4F
:10599000B04215D122F08006CA8924F4406403EA9B
:1059A0000212324322F040068A8803EA021232438E
:1059B0000E8A03EA860626434C8A03EA84043443AB
:1059C0008480058389688163028470BD0000014082
:1059D00000040140028B4FF6FF7322F4006203EAD9
:1059E000012111430183704770B5028C22F480724B
:1059F0000284028C8488838B0D8823F073031D43FB
:105A000022F400738E894FF6FF7202EA06261E43C7
:105A10004B8802EA03233343104EB04202D0104EAB
:105A2000B04215D123F40066CB8924F4405402EA35
:105A30000323334323F480668B8802EA0323334332
:105A40000E8A02EA061626434C8A02EA04143443FC
:105A5000848085838968C163038470BD0000014030
:105A600000040140828B22F008020A4382837047BF
:105A700070B5028C22F480520284048C8288838B5D
:105A80000D8823F4E6464FF6FF7303EA05253543F8
:105A900024F400568C8903EA043434434E8803EA24
:105AA00006362643084CA04202D0084CA04205D13D
:105AB00022F480440A8A03EA821222438280858388
:105AC00089680164068470BD000001400004014043
:105AD000828B4FF6FF7322F4006203EA0121114327
